:1000000096C0B0C0AFC0AEC05CC1ACC0ABC0AAC0EF
:10001000A9C0A8C0A7C0A6C0A5C0A4C0A3C0000016
:1000200000000000000000000001010203030405BD
:10003000060708090A0C0D0F1012131517191A1CC0
:100040001E21232527292C2E313336383B3D4043B2
:1000500046484B4E5154575A5D606366696C6F73E6
:1000600076797C7F8285888B8F9295989B9EA1A4C0
:10007000A7AAADB0B3B6B8BBBEC1C3C6C8CBCDD0BE
:10008000D2D5D7D9DBDDE0E2E4E5E7E9EBECEEEF52
:10009000F1F2F4F5F6F7F8F9FAFBFBFCFDFDFEFED4
:1000A000FEFEFEFFFEFEFEFEFEFDFDFCFBFBFAF982
:1000B000F8F7F6F5F4F2F1EFEEECEBE9E7E5E4E260
:1000C000E0DDDBD9D7D5D2D0CDCBC8C6C3C1BEBB4E
:1000D000B8B6B3B0ADAAA7A4A19E9B9895928F8BFA
:1000E0008885827F7C7976736F6C696663605D5A00
:1000F0005754514E4B484643403D3B383633312EE2
:100100002C29272523211E1C1A1917151312100F2D
:100110000D0C0A0908070605040303020101003754
:10012000003801010101010101020408102011241D
:100130001FBECFE5D2E0DEBFCDBF10E0A0E6B0E04D
:10014000ECE2FAE002C005900D92A237B107D9F7B0
:1001500020E0A2E7B0E001C01D92A138B207E1F7AC
:10016000F7D062C44DCFE9E2F1E09491E3E2F1E02F
:10017000E491EE2391F02AB52F7C2ABDF0E0E05EF9
:10018000FE4FA491B0E0811109C08FB7F8942C9173
:10019000E92FE095E223EC938FBF08958FB7F89491
:1001A000EC91E92BF8CF90E0FC01E85DFE4F249143
:1001B0008E5D9E4FFC0184918823A1F090E0FC01AC
:1001C000E25EFE4FA491B0E0805E9E4FFC01849100
:1001D0008FB7611108C0F8949C91E22FE095E92354
:1001E000EC938FBF0895F894EC91E22BF9CF3FB7D1
:1001F000F89480917D0090917E00A0917F00B09155
:1002000080002FB508B602FE05C02F3F19F00196F9
:10021000A11DB11D3FBFBA2FA92F982F8827BC0160
:10022000CD01620F711D811D911D42E0660F771F88
:10023000881F991F4A95D1F70895CF92DF92EF92C8
:10024000FF92CF93DF936B017C01D1DFEB01C114EF
:10025000D104E104F10439F4DF91CF91FF90EF90E4
:10026000DF90CF900895C3DF6C1B7D0B683E734019
:1002700070F381E0C81AD108E108F108C851DC4FD9
:10028000E6CFCF92DF92EF92FF92CF93DF93D82FFA
:10029000C0E06B01F12CE12CCD1761F081E063DF50
:1002A000C701B601CADF80E05EDFC701B601C5DF66
:1002B000CF5FF2CFDF91CF91FF90EF90DF90CF90A3
:1002C000089578941F920F920FB60F9211242F93D6
:1002D0003F938F939F93AF93BF93809179009091B9
:1002E0007A00A0917B00B0917C00309178002CE7DF
:1002F000230F2D3728F02FEF230F0196A11DB11DDD
:10030000209378008093790090937A00A0937B00EB
:10031000B0937C0080917D0090917E00A0917F0041
:10032000B09180000196A11DB11D80937D00909336
:100330007E00A0937F00B0938000BF91AF919F910A
:100340008F913F912F910F900FBE0F901F90189596
:10035000789480B7806880BF80B7806480BF8CB598
:1003600080648CBD8FEF8DBD80B7807F876080BF3C
:1003700089B7846089BF83B7887F83BF8AB58C7F44
:1003800081608ABD83B7877F83BF83B7887F83609F
:1003900083BF86B1876086B9379A68EC70E080E0E9
:1003A00090E04BDF61E081E0FEDE60E087E0FBDEB5
:1003B00087B18F7287B987B1807F816087B9369A9C
:1003C0003699FECF64B175B1072E000C880B990BDE
:1003D0000CD220E030E040EA50E4BBD220E030E034
:1003E00040E85AE3B6D29B01AC0101D123E333E3E9
:1003F00043ED50E4FBD024E636E646EE5FE35FD102
:1004000020E030E048EC52E4A4D26B017C0120E013
:1004100030E0A90150D187FD26C020E030E048EC53
:1004200052E4C701B60191D21816FCF020E030E08A
:1004300046E952E4C701B60188D21816B4F020E0AC
:1004400030E048E452E4C701B6017FD2C3E0181699
:100450006CF020E030E048EC51E4C701B60175D201
:10046000C2E018161CF0C1E001C0C4E080E090E0DA
:10047000A7D0843008F099C0809373006091730016
:1004800070E06F5F7F4F6370772780E090E0A0D0CF
:100490006AEF70E08C2FF5DE68EE73E080E090E0AC
:1004A000CCDE809173006DE770E08F5FEADE64EF71
:1004B00071E080E090E0C1DE11E0809176009091E3
:1004C00077000196909377008093760020916000EA
:1004D000309161008217930709F050C0C0917500F8
:1004E000D0917400ED2FF0E0E25EFF4FCC2309F4D1
:1004F0005FC0649170E090E080E077D12AE939E94B
:1005000049E15FE326D243D170E090E080E06DD115
:100510002AE939E949E15FE31CD220E030E04CEC04
:1005200052E465D034D170E090E080E05ED1E0919B
:100530007300F0E0EE0FFF1FEE0FFF1FEE59FF4FAD
:10054000208131814281538104D221D16093720094
:10055000DF5FD0937400D1110DC0C127C093750027
:1005600088E090E0C11102C080E190E090936100CA
:10057000809360001092770010927600C091720014
:10058000EC2EF12C61E081E00EDE80E0E114F1045C
:1005900029F08FEFE816F10469F481E0E4DD61E011
:1005A00070E080E090E049DE88CF1092730066CF63
:1005B0006491AACF8AB58F7C80628ABDC8BDEFCF17
:1005C000E199FECF9FBB8EBBE09A99278DB308952A
:1005D000262FE199FECF1CBA9FBB8EBB2DBB0FB659
:1005E000F894E29AE19A0FBE019608955058BB27FD
:1005F000AA270ED070C161D130F066D120F031F45D
:100600009F3F11F41EF456C10EF4E095E7FB4CC178
:10061000E92F72D180F3BA17620773078407950731
:1006200018F071F49EF58AC10EF4E0950B2EBA2FE6
:10063000A02D0B01B90190010C01CA01A0011124E8
:10064000FF27591B99F0593F50F4503E68F11A1694
:10065000F040A22F232F342F4427585FF3CF469525
:1006600037952795A795F0405395C9F77EF41F1647
:10067000BA0B620B730B840BBAF09150A1F0FF0F11
:10068000BB1F661F771F881FC2F70EC0BA0F621FFD
:10069000731F841F48F4879577956795B795F795ED
:1006A0009E3F08F0B3CF9395880F08F09927EE0F7F
:1006B000979587950895D4D008F481E008950CD0DB
:1006C0000AC102D140F0F9D030F021F45F3F19F0B7
:1006D000EBC0511134C1EEC00FD198F39923C9F387
:1006E0005523B1F3951B550BBB27AA276217730738
:1006F000840738F09F5F5F4F220F331F441FAA1FEC
:10070000A9F333D00E2E3AF0E0E830D091505040AB
:10071000E695001CCAF729D0FE2F27D0660F771F59
:10072000881FBB1F261737074807AB07B0E809F03B
:10073000BB0B802DBF01FF2793585F4F2AF09E3FD0
:10074000510568F0B1C0FBC05F3FECF3983EDCF3AD
:10075000869577956795B795F7959F5FC9F7880F49
:10076000911D9695879597F90895E1E0660F771F9B
:10077000881FBB1F621773078407BA0720F0621B2C
:10078000730B840BBA0BEE1F88F7E0950895BCD06D
:1007900088F09F5790F0B92F9927B751A0F0D1F06A
:1007A000660F771F881F991F1AF0BA95C9F712C0F4
:1007B000B13081F0C3D0B1E00895C0C0672F782F69
:1007C0008827B85F39F0B93FCCF386957795679560
:1007D000B395D9F73EF490958095709561957F4FCC
:1007E0008F4F9F4F0895E89409C097FB3EF4909572
:1007F0008095709561957F4F8F4F9F4F9923A9F0FA
:10080000F92F96E9BB279395F69587957795679588
:10081000B795F111F8CFFAF4BB0F11F460FF1BC0CC
:100820006F5F7F4F8F4F9F4F16C0882311F096E95F
:1008300011C0772321F09EE8872F762F05C066230D
:1008400071F096E8862F70E060E02AF09A95660FC6
:10085000771F881FDAF7880F9695879597F908957F
:10086000990F0008550FAA0BE0E8FEEF16161706C1
:10087000E807F907C0F012161306E407F50798F029
:10088000621B730B840B950B39F40A2661F0232B42
:10089000242B252B21F408950A2609F4A140A695BE
:1008A0008FEF811D811D089597F99F6780E870E0A3
:1008B00060E008959FEF80EC089500240A941616D6
:1008C000170618060906089500240A94121613063E
:1008D000140605060895092E0394000C11F48823CC
:1008E00052F0BB0F40F4BF2B11F460FF04C06F5FE8
:1008F0007F4F8F4F9F4F089557FD9058440F551FBE
:1009000059F05F3F71F04795880F97FB991F61F091
:100910009F3F79F087950895121613061406551F08
:10092000F2CF4695F1DF08C0161617061806991F74
:10093000F1CF86957105610508940895E894BB2769
:1009400066277727CB0197F908958ADF08F48FEFA0
:1009500008950AD0C0CFB1DF28F0B6DF18F0952394
:1009600009F0A2CFA7CFEBCFC7DFA8F39923D9F324
:100970005523C9F3950F50E0551FAA27EE27FF27EF
:10098000BB2700240894679520F4E20FF31FB41FDF
:100990000A1E220F331F441FAA1F6695A9F77795D9
:1009A00030F4F30FB41F0A1E121E08F46395330FC0
:1009B000441FAA1F221F769599F7879520F4B40F3C
:1009C0000A1E121E631F440FAA1F221F331F869583
:1009D000A9F7862F712D602D11249F5750408AF062
:1009E000E1F088234AF0EE0FFF1FBB1F661F771F41
:1009F000881F91505040A9F79E3F510570F054CF89
:100A00009ECF5F3FECF3983EDCF386957795679534
:100A1000B795F795E7959F5FC1F7FE2B880F911D5E
:0C0A20009695879597F90895F894FFCFFC
:100A2C000800CDCCCC3DCDCC4C3E9A99193F000062
:020A3C00803FF9
:00000001FF
